S01C0000506F7765724F424374776F7761792D506F7765722E7372656342
S11300000C942A000C9447000C9447000C9447006D
S11300100C9447000C9447000C9447000C94470040
S11300200C9447000C9447000C9447000C94470030
S11300300C9447000C9447000C9447000C94470020
S11300400C9447000C9447000C9447000C949A00BD
S11300500C94470011241FBECFE5D8E0DEBFCDBF0E
S113006010E0A0E6B0E0E2ECF2E002C005900D92F0
S1130070A236B107D9F720E0A2E6B0E001C01D9294
S1130080AA37B207E1F70E9449000C945F010C946F
S1130090000078940E944D0180E20E94710061E0AA
S11300A082E790E00E94770082E0809371000F2E37
S11300B0F2E7EF2EF0E0FF2EF02DCAE6D0E005E3E4
S11300C014E3F70180810E945B0108831983FFE731
S11300D028E381E0F15020408040E1F700C00000B7
S11300E0F0CF82B984E086BF1092640008959C0129
S11300F0909164009111FECF60936500662379F0BE
S1130100F901A6E6B0E0615070E06F5F7F4FC9016E
S1130110860F971F21912D93E817F907D9F71092AD
S1130120630088EF8093600085EC86BF81E0809354
S1130130640008951F920F920FB60F9211242F930B
S11301403F938F939F93AF93BF93EF93FF9381B1AB
S1130150803909F467C090F4803709F451C038F449
S1130160882309F480C0803609F44FC082C08038E7
S113017009F458C0883809F476C07BC0883A81F005
S113018038F4883909F46FC0803A09F467C071C043
S1130190803C11F1883C09F466C0883B39F069C0A1
S11301A010926200809171008093650080916200DA
S11301B0282F30E0F901E659FF4F9081F901EA59FF
S11301C0FF4F90838F5F8093620093B985EC86BF65
S11301D081E08093640054C0909162008091650036
S11301E0981306C08091630081608093630003C00C
S11301F081B18093600085EC86BF1092640040C09A
S113020080916300846080936300809163008260C6
S1130210809363001092620085EC86BF81E0809336
S113022064002EC0A0916200E1E0EA0FE093620056
S113023083B1B0E0AA59BF4F8C93F0E0EB59FF4F64
S11302408081809372008091630081608093630059
S113025085EC86BF81E08093640012C085EC86BF84
S1130260109264000DC081B18093600080E986BF64
S113027007C081B18093600085EC86BF1092640052
S1130280FF91EF91BF91AF919F918F913F912F91EA
S11302900F900FBE0F901F9018951BB81AB810BC82
S11302A0599A8AB188618AB980B58E6080BD87E623
S11302B089B910BC08955D9BFECF8CB90895F8945C
S10502C0FFCF6A
S10502C2F8003E
S9030000FC
